:100000000C9446000C9465000C9465000C946500FB
:100010000C9465000C9465000C9465000C946500CC
:100020000C9465000C9465000C9465000C946500BC
:100030000C9465000C94A3000C9465000C9465006E
:100040000C9465000C9465000C9465000C9465009C
:100050000C9465000C9465000C9465000C9465008C
:100060000C9465000C9465000C9465000C9465007C
:100070000C9465000C9465000C9465000C9465006C
:100080000C9465000C9465000C94650011241FBE4F
:10009000CFEFD0E4DEBFCDBF11E0A0E0B1E0E4EFF0
:1000A000F3E000E00BBF02C007900D92A231B10750
:1000B000D9F721E0A2E1B1E001C01D92AD31B20754
:1000C000E1F70E94D1010C94F8010C940000CF9349
:1000D000C82F8A3019F48DE00E9467008091C0001B
:1000E00085FFFCCFC093C60080E090E0CF910895DB
:1000F0008BE0809381008DE790E09093890080935E
:10010000880082E080936F00109285001092840036
:100110008091000190910101A0910201B091030131
:100120008093120190931301A0931401B0931501D1
:100130008FB780688FBF089510928100089581E085
:100140008093160108951F920F920FB60F921124FB
:100150000BB60F922F933F934F935F936F937F93C1
:100160008F939F93AF93BF93EF93FF93809112016F
:1001700090911301A0911401B09115010197A1096B
:10018000B1098093120190931301A0931401B093CD
:100190001501892B8A2B8B2B91F40E949F00809153
:1001A000000190910101A0910201B091030180939F
:1001B000120190931301A0931401B0931501FF91C4
:1001C000EF91BF91AF919F918F917F916F915F91CF
:1001D0004F913F912F910F900BBE0F900FBE0F903C
:1001E0001F901895609300017093010180930201A4
:1001F0009093030160931201709313018093140193
:100200009093150108958091190190911A018230FF
:10021000910589F128F4009769F0019791F094C055
:100220008430910509F46AC008F44EC0059709F4BA
:1002300077C08AC081E090E090931A018093190101
:1002400089C080911801813059F490911C0191115D
:1002500007C084E090E090931A01809319017AC05E
:10026000811102C010921C0182E090E090931A016B
:10027000809319016FC080911801813059F49091D9
:100280001C01911107C084E090E090931A018093C3
:10029000190160C090911701913059F4811102C089
:1002A00010921C0183E090E090931A018093190151
:1002B00051C0811102C010921C0181E090E0909326
:1002C0001A018093190146C080911801813059F4B8
:1002D00090911C01911107C084E090E090931A0165
:1002E0008093190137C0811102C010921C0182E075
:1002F00090E090931A01809319012CC0809118010D
:10030000813039F484E090E090931A0180931901D0
:1003100021C085E090E090931A01809319011AC0E2
:1003200080911801813049F481E090E090931A01A6
:100330008093190180931C010DC085E090E090939B
:100340001A018093190106C081E090E090931A0190
:10035000809319018091190190911A0182309105C1
:1003600091F028F40097E1F0019739F016C083303E
:10037000910569F0069788F4089581E080931B0148
:1003800080931701089582E080931B01089584E013
:1003900080931B0110921701089581E080931B0147
:1003A000089511B88FEF82B984B915B86CE271E085
:1003B00080E090E00E94F2000E94780010921A0102
:1003C000109219011092180110921B0190B181E056
:1003D00089278170809318010E9403018091160182
:1003E0008823E1F31092160180911B0185B9EECFAD
:0403F000F894FFCFAF
:1003F400010000000000000200000000670000008F
:020404000000F6
:00000001FF
