:100000000C9446000C9465000C9465000C946500FB
:100010000C9465000C9465000C9465000C946500CC
:100020000C9465000C9465000C9465000C946500BC
:100030000C9465000C9465000C9465000C946500AC
:100040000C9465000C9465000C9465000C9465009C
:100050000C9465000C9465000C9465000C9465008C
:100060000C9465000C9465000C9465000C9465007C
:100070000C9465000C9465000C9465000C9465006C
:100080000C9465000C9465000C94650011241FBE4F
:10009000CFEFD0E4DEBFCDBF11E0A0E0B1E0E6EBF2
:1000A000F2E000E00BBF02C007900D92AE30B10746
:1000B000D9F721E0AEE0B1E001C01D92A031B20756
:1000C000E1F70E944C010C9459010C940000CF936D
:1000D000C82F8A3019F48DE00E9467008091C0001B
:1000E00085FFFCCFC093C60080E090E0CF910895DB
:1000F00080910E0190910F018230910509F44BC05F
:1001000028F4009769F0019791F09DC08430910523
:1001100009F44FC008F446C0059709F477C093C0AE
:1001200081E090E090930F0180930E018CC080B12C
:1001300090E08095909583709927019739F482E03B
:1001400090E090930F0180930E017DC080B190E00C
:100150008095909583709927029739F483E090E019
:1001600090930F0180930E016EC080B190E0809556
:10017000909583709927039739F485E090E09093E8
:100180000F0180930E015FC081E090E090930F011A
:1001900080930E0158C084E090E090930F0180930B
:1001A0000E0151C084E090E090930F0180930E0106
:1001B0004AC080B190E0809590958370992701970F
:1001C00041F080B190E080959095837099270297D7
:1001D00039F484E090E090930F0180930E0133C0D6
:1001E00080B190E08095909583709927039739F4BA
:1001F00085E090E090930F0180930E0124C081E090
:1002000090E090930F0180930E011DC080B190E0AB
:100210008095909583709927019741F080B190E087
:100220008095909583709927029739F485E090E046
:1002300090930F0180930E0106C081E090E09093AF
:100240000F0180930E0180910E0190910F01823079
:10025000910569F018F4892B39F0089583309105E0
:1002600081F00597B9F0089587E088B9089588B1BD
:10027000893018F089E088B9089588B18F5F88B90E
:10028000089588B1811102C018B8089588B18150CD
:1002900088B9089518B8089511B88FEF82B987B951
:1002A00087E088B910920F0110920E010E94780029
:0602B000FDCFF894FFCF22
:0E02B6000000000200000000670000000000D1
:00000001FF
