:100000000C9446000C9465000C9465000C946500FB
:100010000C9465000C9465000C9465000C946500CC
:100020000C9465000C9465000C9465000C946500BC
:100030000C9465000C94A3000C9465000C9465006E
:100040000C9465000C9465000C9465000C9465009C
:100050000C9465000C9465000C9465000C9465008C
:100060000C9465000C9465000C9465000C9465007C
:100070000C9465000C9465000C9465000C9465006C
:100080000C9465000C9465000C94650011241FBE4F
:10009000CFEFD0E4DEBFCDBF11E0A0E0B1E0EAE1F8
:1000A000F8E000E00BBF02C007900D92A83AB1073C
:1000B000D9F721E0A8EAB1E001C01D92A63BB20742
:1000C000E1F70E9453020C940B040C940000CF93B0
:1000D000C82F8A3019F48DE00E9467008091C0001B
:1000E00085FFFCCFC093C60080E090E0CF910895DB
:1000F0008BE0809381008DE790E09093890080935E
:10010000880082E080936F00109285001092840036
:100110008091960190919701A0919801B0919901D9
:100120008093A8019093A901A093AA01B093AB0179
:100130008FB780688FBF089510928100089581E085
:100140008093AC0108951F920F920FB60F92112465
:100150000BB60F922F933F934F935F936F937F93C1
:100160008F939F93AF93BF93EF93FF938091A801D9
:100170009091A901A091AA01B091AB010197A109A9
:10018000B1098093A8019093A901A093AA01B0930B
:10019000AB01892B8A2B8B2B91F40E949F008091BD
:1001A000960190919701A0919801B0919901809347
:1001B000A8019093A901A093AA01B093AB01FF916C
:1001C000EF91BF91AF919F918F917F916F915F91CF
:1001D0004F913F912F910F900BBE0F900FBE0F903C
:1001E0001F901895609396017093970180939801E2
:1001F000909399016093A8017093A9018093AA013B
:100200009093AB010895CF92DF92EF92FF926B0132
:100210007C016091AD017091AE018091AF01909130
:10022000B001A70196010E947702882309F458C003
:1002300020E030E0A901C701B6010E9477028111D8
:1002400006C0E1E9F0E080818870808305C0E1E9C3
:10025000F0E080818360808328E539E344E75FE351
:10026000C701B6010E94770288233CF48FEF9FEF0D
:10027000909399008093980027C020E034E244EFE7
:1002800056E4C701B6010E94990318162CF4109287
:1002900099001092980018C020E030E040E053E44C
:1002A000C701B6010E949E039B01AC0160E074E2AD
:1002B00084EF9AE40E947C020E94EE026150710970
:1002C000709399006093980010929500109294009A
:1002D000C092AD01D092AE01E092AF01F092B001B8
:1002E000FF90EF90DF90CF90089580E4809390008E
:1002F0008BE08093910060E070E0CB010E940301ED
:100300000895109290001092910008958091B30189
:100310009091B4018230910539F128F4009759F099
:10032000019781F07FC08330910509F45CC0049788
:1003300009F478C077C081E090E09093B401809395
:10034000B30176C08091B201813039F482E090E04F
:100350009093B4018093B3016BC081E090E09093DF
:10036000B4018093B30164C08091B501893148F52F
:1003700090E0FC01E75EFE4F30812091B101231730
:10038000B8F442E050E05093B4014093B3012F5FC2
:100390002093B101880F991F880F991FFC01EE5C13
:1003A000FE4F60817181828193810E94030140C070
:1003B00083E090E09093B4018093B3011092B10177
:1003C00037C08091B201813039F484E090E090939D
:1003D000B4018093B3012CC081E090E09093B4010C
:1003E0008093B30125C08091B501E82FF0E0E05083
:1003F000FF4F20819091B101921750F423E030E03B
:100400003093B4012093B3019F5F9093B10110C06A
:1004100022E030E03093B4012093B3018F5F8093EA
:10042000B50106C081E090E09093B4018093B301E0
:100430008091B3019091B40182309105C9F028F404
:10044000009749F0019769F02BC08330910511F1B5
:10045000049719F125C060E070E0CB010E94030110
:1004600008950E9481011092B5011092B101089582
:100470000E947501E091B501F0E0EE0FFF1FEE0F55
:10048000FF1FEE5CFE4F60817181828193810E942B
:10049000030108950E94810108950E948101089539
:1004A0000E948101089511B88FEF82B984B915B8FF
:1004B00064E670E080E090E00E94F2000E94780024
:1004C0001092B4011092B3011092B5011092B101D3
:1004D00090B181E0892781708093B2010E948601EA
:1004E0008091AC018823E1F31092AC01F1CF0E941E
:1004F000240308F481E008950E9490020C945F03A5
:100500000E94580358F00E94510340F029F45F3FC5
:1005100029F00C94480351110C9493030C944E034E
:100520000E94700368F39923B1F3552391F3951B4F
:10053000550BBB27AA2762177307840738F09F5F04
:100540005F4F220F331F441FAA1FA9F335D00E2E71
:100550003AF0E0E832D091505040E695001CCAF7DE
:100560002BD0FE2F29D0660F771F881FBB1F2617A1
:1005700037074807AB07B0E809F0BB0B802DBF0178
:10058000FF2793585F4F3AF09E3F510578F00C9447
:1005900048030C9493035F3FE4F3983ED4F38695AD
:1005A00077956795B795F7959F5FC9F7880F911D68
:1005B0009695879597F90895E1E0660F771F881F54
:1005C000BB1F621773078407BA0720F0621B730B07
:1005D000840BBA0BEE1F88F7E09508950E94F50290
:1005E0006894B1110C94930308950E94780388F0E5
:1005F0009F5798F0B92F9927B751B0F0E1F0660FE7
:10060000771F881F991F1AF0BA95C9F714C0B13027
:1006100091F00E949203B1E008950C949203672F29
:10062000782F8827B85F39F0B93FCCF38695779556
:100630006795B395D9F73EF490958095709561953F
:100640007F4F8F4F9F4F0895990F0008550FAA0BAA
:10065000E0E8FEEF16161706E807F907C0F01216D5
:100660001306E407F50798F0621B730B840B950BD8
:1006700039F40A2661F0232B242B252B21F408952D
:100680000A2609F4A140A6958FEF811D811D0895CA
:1006900097F99F6780E870E060E008959FEF80EC35
:1006A000089500240A9416161706180609060895D8
:1006B00000240A9412161306140605060895092E3E
:1006C0000394000C11F4882352F0BB0F40F4BF2BAD
:1006D00011F460FF04C06F5F7F4F8F4F9F4F0895ED
:1006E00057FD9058440F551F59F05F3F71F04795E3
:1006F000880F97FB991F61F09F3F79F087950895C8
:10070000121613061406551FF2CF4695F1DF08C0E6
:10071000161617061806991FF1CF86957105610503
:1007200008940895E894BB2766277727CB0197F9AB
:1007300008950E94240308F48FEF08950E94B103E6
:100740000C945F030E94510338F00E94580320F07C
:10075000952311F00C9448030C944E0311240C942F
:1007600093030E94700370F3959FC1F3950F50E0BF
:10077000551F629FF001729FBB27F00DB11D639F53
:10078000AA27F00DB11DAA1F649F6627B00DA11DF9
:10079000661F829F2227B00DA11D621F739FB00D9F
:1007A000A11D621F839FA00D611D221F749F33270F
:1007B000A00D611D231F849F600D211D822F762FA8
:1007C0006A2F11249F5750409AF0F1F088234AF085
:1007D000EE0FFF1FBB1F661F771F881F91505040F1
:1007E000A9F79E3F510580F00C9448030C949303A5
:1007F0005F3FE4F3983ED4F3869577956795B79578
:10080000F795E7959F5FC1F7FE2B880F911D969591
:0A081000879597F90895F894FFCF3B
:10081A0002020202020202020202020202020202AE
:10082A00020202020202020202020202020202029E
:10083A00020202020202020202020202020202028E
:10084A000202A4D0A4437BD49243A4D082437BD493
:10085A009243A4D0A443A4D0A443A4D0A4437BD459
:10086A0092437BD492437BD49243A4D0A443A4D092
:10087A00A443A4D0A443A4D0A4437BD49243A4D039
:10088A0082437BD49243A4D0A443A4D0A443A4D04B
:10089A00A443A4D0A4437BD492437BD49243A4D050
:1008AA00A4437BD492430100000000000002000030
:0808BA000000670000000000CF
:00000001FF
