:100000000C948B000C94AA000C94AA000C94AA00E7
:100010000C94AA000C94AA000C94AA000C94AA00B8
:100020000C94AA000C94AA000C94AA000C94AA00A8
:100030000C94AA000C94B8020C94AA000C94AA0088
:100040000C94AA000C94AA000C94AA000C94AA0088
:100050000C94AA000C94AA000C94AA000C94AA0078
:100060000C94AA000C94AA000C94AA000C94AA0068
:100070000C94AA000C94AA000C94AA000C94AA0058
:100080000C94AA000C94AA000C94AA0033027602E5
:1000900076027602760276027602760276027602A0
:1000A0007602760276027602760276027602760290
:1000B0007602760276027602760276027602760280
:1000C0007602760276027602760276027602760270
:1000D0007602720276027602760276027602760264
:1000E0006A02760276027602760276026E023602A4
:1000F0003A023E02420246024A024E0252025602B0
:1001000076027602760276027602760276025A024B
:100110005E026202660211241FBECFEFD0E4DEBF92
:10012000CDBF11E0A0E0B1E0E6E7F8E000E00BBFF2
:1001300002C007900D92A231B107D9F721E0A2E1E8
:10014000B1E001C01D92A133B207E1F70E94340370
:100150000C9439040C94000040E050E00CC0000006
:100160002F5F3F4F02C020E030E0273063E03607CA
:10017000B4F34F5F5F4F48175907ACF3089595B13B
:100180009F7B95B98BB985B1806885B9000085B131
:100190008F7785B982E090E00E94AC00089581E0FD
:1001A0000E94BF000895813120F481580E94BF0051
:1001B000089581550E94BF00089584E690E00E9452
:1001C000AC0088E30E94BF0086E00E94BF008FE081
:1001D0000E94BF0081E00E94BF008AE090E00E9480
:1001E000AC00089595B1906495B98BB985B18068DC
:1001F00085B9000085B18F7785B981E090E00E94D4
:10020000AC000895EF92FF920F931F93CF93DF936B
:10021000182FEB010E94CF000EC001E0010F812FCB
:100220000E94D3007E018FEFE81AF80A88810E94AD
:10023000F200102FE70188818111EFCFDF91CF917C
:100240001F910F91FF90EF900895CF93C82F8A30A0
:1002500019F48DE00E9425018091C00085FFFCCF3C
:10026000C093C60080E090E0CF910895CF93DF93D4
:10027000EC01892B29F480911201811104C005C081
:10028000C0E0D0E002C0C1E0D0E0209721F0C13052
:10029000D10549F00CC081E00E94D30080912F016C
:1002A0000E94F20004C08091120180932F01CE01C0
:1002B000DF91CF910895442349F021E030E002C05E
:1002C000220F331F6A95E2F7822B089521E030E078
:1002D00002C0220F331F6A95E2F72095822308950A
:1002E00021E030E002C0220F331F6A95E2F782233B
:1002F000089540E064E08FEF0E945B0188B9000040
:1003000086B160E080950E947001811180C086B145
:1003100061E080950E94700181117BC086B162E02E
:1003200080950E947001811176C086B163E080954E
:100330000E947001811171C040E065E08FEF0E9462
:100340005B0188B9000086B160E080950E94700171
:10035000811165C086B161E080950E9470018111B4
:1003600060C086B162E080950E94700181115BC01F
:1003700086B163E080950E947001811156C040E013
:1003800066E08FEF0E945B0188B9000086B160E0F3
:1003900080950E94700181114AC086B161E080950C
:1003A0000E947001811145C086B162E080950E9473
:1003B0007001811140C086B163E080950E94700198
:1003C00081113BC040E067E08FEF0E945B0188B97C
:1003D000000086B160E080950E94700181112FC0FD
:1003E00086B161E080950E94700181112AC086B1BA
:1003F00062E080950E947001811125C086B163E0A2
:1004000080950E9470018823F9F084E4089581E3C7
:10041000089584E3089587E308958AE2089582E3C6
:10042000089585E3089588E3089580E3089583E3BC
:10043000089586E3089589E3089583E2089581E4A9
:10044000089582E4089583E408950E9479018093D9
:10045000130190E08534910508F048C0FC01EA5B87
:10046000FF4F0C9430041092120143C081E380933B
:1004700012013FC082E3809312013BC083E380936B
:10048000120137C084E38093120133C085E3809367
:1004900012012FC086E3809312012BC087E3809363
:1004A000120127C088E38093120123C089E380935F
:1004B00012011FC081E4809312011BC082E480936B
:1004C000120117C083E48093120113C084E4809367
:1004D00012010FC08AE2809312010BC080E3809367
:1004E000120107C083E28093120103C08BE1809365
:1004F000120180E090E00895609300017093010183
:10050000809302019093030160931401709315018D
:10051000809316019093170108958BE080938100DA
:100520008DE790E0909389008093880082E080932B
:100530006F001092850010928400809100019091CC
:100540000101A0910201B0910301809314019093E5
:100550001501A0931601B09317018FB780688FBF64
:10056000089510928100089581E080931801089504
:100570001F920F920FB60F9211240BB60F922F936A
:100580003F934F935F936F937F938F939F93AF931B
:10059000BF93EF93FF938091140190911501A09167
:1005A0001601B09117010197A109B10980931401B7
:1005B00090931501A0931601B0931701892B8A2BF4
:1005C0008B2B91F40E94B402809100019091010163
:1005D000A0910201B0910301809314019093150141
:1005E000A0931601B0931701FF91EF91BF91AF91C6
:1005F0009F918F917F916F915F914F913F912F913B
:100600000F900BBE0F900FBE0F901F9018950F9379
:100610001F93CF93DF93B62FA72FF82FE92F022F29
:10062000132FD42FC52F04C0062F172FD82FC92F53
:100630006B2F7A2F8F2F9E2F202F312F4D2F5C2F36
:100640000E940E04B02FA12FFD2FEC2F6115710514
:100650008105910549F7602F712F8D2F9C2FDF9118
:10066000CF911F910F910895CF93DF9300D000D0C9
:10067000CDB7DEB711B88FEF82B984B915B890EF56
:1006800097B99FE098B98AB91BB80E94DD00A4E22F
:10069000B1E0BA83A983E9E1F1E0FC83EB831C922A
:1006A0004AEF50E060E070E011964D935D936D93DA
:1006B0007C93149715964D935D936D937C93189747
:1006C00086E391E01A969C938E93199710828AE0A4
:1006D00090E0A0E0B0E081839283A383B48385831C
:1006E0009683A783B08785E292E09287818781E035
:1006F000809330010F2EFAEFCF2ED12CE12CF12C6C
:10070000F02D1AC0E12FF0E0EE0FFF1F21E030E0E6
:100710002C0F3D1FE20FF31F0190F081E02D21818E
:10072000328143815481C701B6010E9407036B01E6
:100730007C011F5F1093300110913001123010F3D3
:10074000C701B6010E947C020E948D021092300106
:1007500059C0F0E0EE0FFF1F81E090E08C0F9D1F6D
:10076000E80FF91F00811181D80115964D915D9117
:100770006D917C91189711968D919D910D90BC91E2
:10078000A02D481759076A077B07F1F4D80119967D
:10079000ED91FC911A978C91082E000C990B0995FC
:1007A000F8018083E0913001F0E0EE0FFF1F21E0BF
:1007B00030E02C0F3D1FE20FF31F0190F081E02D80
:1007C000158216821782108680913001E82FF0E0A2
:1007D000EE0FFF1FA1E0B0E0AC0FBD1FEA0FFB1F43
:1007E0000190F081E02D45815681678170854C0D27
:1007F0005D1D6E1D7F1D45835683678370878F5FE8
:1008000080933001E0913001E23008F4A2CF809172
:1008100018018823E1F31092180198CFA1E21A2E53
:10082000AA1BBB1BFD010DC0AA1FBB1FEE1FFF1F94
:10083000A217B307E407F50720F0A21BB30BE40BE4
:10084000F50B661F771F881F991F1A9469F760952B
:100850007095809590959B01AC01BD01CF010895E5
:10086000EE0FFF1F0024001C0BBE0790F691E02D39
:060870000994F894FFCF8B
:100876000100000000000002000000002501000049
:02088600000070
:00000001FF
