:100000000C9446000C9465000C9465000C946500FB
:100010000C9465000C9465000C9465000C946500CC
:100020000C9465000C9465000C9465000C946500BC
:100030000C9465000C94A3000C9465000C9465006E
:100040000C9465000C9465000C9465000C9465009C
:100050000C9465000C9465000C9465000C9465008C
:100060000C9465000C9465000C9465000C9465007C
:100070000C9465000C9465000C9465000C9465006C
:100080000C9465000C9465000C94650011241FBE4F
:10009000CFEFD0E4DEBFCDBF11E0A0E0B1E0E8EFEC
:1000A000F5E000E00BBF02C007900D92A231B1074E
:1000B000D9F721E0A2E1B1E001C01D92AA32B20756
:1000C000E1F70E9474020C94FA020C940000CF93A2
:1000D000C82F8A3019F48DE00E9467008091C0001B
:1000E00085FFFCCFC093C60080E090E0CF910895DB
:1000F0008BE0809381008DE790E09093890080935E
:10010000880082E080936F00109285001092840036
:100110008091000190910101A0910201B091030131
:100120008093120190931301A0931401B0931501D1
:100130008FB780688FBF089510928100089581E085
:100140008093160108951F920F920FB60F921124FB
:100150000BB60F922F933F934F935F936F937F93C1
:100160008F939F93AF93BF93EF93FF93809112016F
:1001700090911301A0911401B09115010197A1096B
:10018000B1098093120190931301A0931401B093CD
:100190001501892B8A2B8B2B91F40E949F00809153
:1001A000000190910101A0910201B091030180939F
:1001B000120190931301A0931401B0931501FF91C4
:1001C000EF91BF91AF919F918F917F916F915F91CF
:1001D0004F913F912F910F900BBE0F900FBE0F903C
:1001E0001F901895609300017093010180930201A4
:1001F0009093030160931201709313018093140193
:100200009093150108958091170190911801813004
:10021000910571F030F08230910589F00397B1F0CB
:100220001CC081E090E090931801809317011BC0DF
:1002300082E090E0909318018093170114C083E04E
:1002400090E090931801809317010DC081E090E039
:10025000909318018093170106C081E090E090937D
:100260001801809317018091170190911801823035
:10027000910549F08330910551F0019759F481E0DF
:1002800080931A01089582E080931A01089584E012
:1002900080931A0108958091280190912901009777
:1002A00019F0019741F00CC081E090E09093290192
:1002B0008093280109C0109229011092280104C0DE
:1002C0001092290110922801809128019091290112
:1002D000009719F0019729F0089588E0809326018E
:1002E000089510922601089580911F019091200198
:1002F00081309105A1F018F00297D9F164C0809186
:100300001C01843039F481E090E0909320018093C7
:100310001F015DC01092200110921F0158C08091F2
:100320001C01843079F4209127019091190129133F
:1003300009C082E090E09093200180931F01109209
:10034000270145C0843081F48091270190911901E3
:10035000891751F021E030E03093200120931F01F4
:100360008F5F8093270133C01092200110921F01EC
:100370002EC080911C01843079F420912701909146
:100380001901291309C081E090E090932001809326
:100390001F01109227011BC0843081F48091270136
:1003A00090911901891751F022E030E0309320013B
:1003B00020931F018F5F8093270109C010922001B5
:1003C00010921F0104C01092200110921F01809111
:1003D0001F01909120018130910539F018F00297AA
:1003E00041F0089510921B01089580E180931B0154
:1003F000089510921B01089580911D0190911E0196
:10040000892B29F410921E0110921D0104C0109234
:100410001E0110921D0180911D0190911E01892BDA
:1004200049F490911A0180912601892B90911B012A
:10043000892B85B90895809123019091240100971B
:1004400019F0019791F148C0809121018230A9F4FF
:1004500080911901853088F490912201913009F042
:1004600042C08F5F809319011092220181E090E0D9
:100470009093240180932301089580912501813078
:1004800091F580911901882371F1909122019130A9
:1004900051F58150809319011092220181E090E082
:1004A0009093240180932301089580912501813048
:1004B00021F080912101823039F481E090E0909325
:1004C00024018093230108951092240110922301A6
:1004D00081E080932201089510922401109223015B
:1004E00081E080932201089511B88FEF82B984B919
:1004F00015B861E070E080E090E00E94F2000E9498
:10050000780010921C0110921B0110921A01109297
:100510002601109219011092270181E08093220197
:1005200010921801109217011092290110922801BF
:1005300010921E0110921D011092200110921F01B5
:100540001092240110922301C12CD12C7601412C50
:10055000512C3201812C912C540180B180958470F2
:1005600080931C0190B181E08927817080932501DF
:1005700080B180958270809321018CE2881681E0A1
:100580009806A104B10428F00E940301812C912C4B
:10059000540188EE481683E058066104710428F07F
:1005A0000E944B01412C512C320182E0C816D1042B
:1005B000E104F10428F00E947401C12CD12C7601D1
:1005C0000E941B020E94FC01809116018823E1F326
:1005D000109216018FEF881A980AA80AB80A8FEFAE
:1005E000481A580A680A780A8FEFC81AD80AE80A1F
:0805F000F80AB3CFF894FFCF25
:1005F8000100000000000002000000006700000089
:020608000000F0
:00000001FF
