:100000000C9446000C9465000C9465000C946500FB
:100010000C9465000C9465000C9465000C946500CC
:100020000C9465000C9465000C9465000C946500BC
:100030000C9465000C9465000C9465000C946500AC
:100040000C9465000C9465000C9465000C9465009C
:100050000C9465000C9465000C9465000C9465008C
:100060000C9465000C9465000C9465000C9465007C
:100070000C9465000C9465000C9465000C9465006C
:100080000C9465000C9465000C94650011241FBE4F
:10009000CFEFD0E4DEBFCDBF11E0A0E0B1E0EAEEEB
:1000A000F1E000E00BBF02C007900D92A231B10752
:1000B000D9F721E0A2E1B1E001C01D92A731B2075A
:1000C000E1F70E94DE000C94F3000C940000CF9343
:1000D000C82F8A3019F48DE00E9467008091C0001B
:1000E00085FFFCCFC093C60080E090E0CF910895DB
:1000F0008BE0809381008DE790E09093890080935E
:10010000880082E080936F00109285001092840036
:100110008091000190910101A0910201B091030131
:100120008093120190931301A0931401B0931501D1
:100130008FB780688FBF089510928100089581E085
:100140008093160108958091120190911301A0915E
:100150001401B09115010197A109B1098093120111
:1001600090931301A0931401B0931501892B8A2B4E
:100170008B2B91F40E949F008091000190910101CE
:10018000A0910201B0910301809312019093130199
:10019000A0931401B093150108956093000170932A
:1001A0000101809302019093030160931201709307
:1001B0001301809314019093150108958FEF84B972
:1001C00015B868EE73E080E090E00E94CD000E94D8
:1001D000780090E0909595B9809116018823E1F31D
:0A01E00010921601F7CFF894FFCF3C
:1001EA00010000000000000200000000670000009B
:0201FA00000003
:00000001FF
