:100000000C9446000C945D000C945D000C945D0013
:100010000C945D000C945D000C945D000C945D00EC
:100020000C945D000C945D000C945D000C945D00DC
:100030000C945D000C945D000C945D000C945D00CC
:100040000C945D000C945D000C945D000C945D00BC
:100050000C945D000C945D000C945D000C945D00AC
:100060000C945D000C945D000C945D000C945D009C
:100070000C945D000C945D000C945D000C945D008C
:100080000C945D000C945D000C945D0011241FBE67
:10009000CFEFD0E4DEBFCDBF11E0A0E0B1E0E4E6F9
:1000A000F1E000E00BBF02C007900D92AE30B10747
:1000B000D9F70E9476000C94B0000C940000CF9306
:1000C000C82F8A3019F48DE00E945F008091C00033
:1000D00085FFFCCFC093C60080E090E0CF910895EB
:1000E000EAE7F0E08081806E808308958FEF84B925
:1000F0008AB90E9470008091780090917900893AC5
:10010000910518F08FEF85B9F6CF8139910518F078
:100110008FE785B9F0CF8937910518F08FE385B95E
:10012000EACF8136910518F08FE185B9E4CF8934A3
:10013000910518F08FE085B9DECF8133910518F075
:1001400087E085B9D8CF8931910518F083E085B96A
:10015000D2CF892B19F081E085B9CDCF15B8CBCF9F
:04016000F894FFCF41
:0E01640000000002000000005F00000000002C
:00000001FF
