:100000000C9446000C9465000C9465000C946500FB
:100010000C9465000C9465000C9465000C946500CC
:100020000C9465000C9465000C9465000C946500BC
:100030000C9465000C9465000C9465000C946500AC
:100040000C9465000C9465000C9465000C9465009C
:100050000C9465000C9465000C9465000C9465008C
:100060000C9465000C9465000C9465000C9465007C
:100070000C9465000C9465000C9465000C9465006C
:100080000C9465000C9465000C94650011241FBE4F
:10009000CFEFD0E4DEBFCDBF11E0A0E0B1E0E2E7FA
:1000A000F2E000E00BBF02C007900D92AE30B10746
:1000B000D9F721E0AEE0B1E001C01D92A231B20754
:1000C000E1F70E9424010C9437010C940000CF93B7
:1000D000C82F8A3019F48DE00E9467008091C0001B
:1000E00085FFFCCFC093C60080E090E0CF910895DB
:1000F00080910F01909110018230910509F44EC05A
:1001000028F4009761F0019789F05CC08430910574
:1001100009F452C008F449C0059761F153C081E069
:1001200090E09093100180930F014CC080910E01DC
:10013000813039F482E090E09093100180930F01B8
:1001400041C0823039F483E090E0909310018093B5
:100150000F0138C0833039F484E090E090931001AF
:1001600080930F012FC081E090E090931001809365
:100170000F0128C080910E01811107C081E090E03D
:100180009093100180930F011DC08330D9F484E057
:1001900090E09093100180930F0114C085E090E0EF
:1001A0009093100180930F010DC085E090E0909333
:1001B000100180930F0106C085E090E0909310013C
:1001C00080930F0180910F01909110018330910570
:1001D00031F130F48130910549F0029779F00895BA
:1001E0008430910569F1059729F0089580911101F6
:1001F00088B908958091110188B9089588B189302E
:1002000021F48091110188B90895809111018F5FC7
:1002100088B9809111018F5F80931101089588B191
:10022000811104C08091110188B908958091110154
:10023000815088B9809111018150809311010895F6
:1002400018B810921101089511B88FEF82B987B9CB
:1002500018B8109211011092100110920F0180B184
:100260008095837080930E010E947800F8CFF894F7
:02027000FFCFBE
:0E027200000000020000000067000000000015
:00000001FF
