:100000000C9450000C946F000C946F000C946F00D3
:100010000C946F000C946F000C946F000C946F00A4
:100020000C946F000C946F000C946F000C946F0094
:100030000C946F000C946F000C946F000C946F0084
:100040000C946F000C946F000C946F000C946F0074
:100050000C946F000C946F000C946F000C946F0064
:100060000C946F000C946F000C946F000C946F0054
:100070000C946F000C946F000C946F000C946F0044
:100080000C946F000C946F000C946F008E00950020
:10009000A700CB00EF001301B900DD00010125012D
:1000A00011241FBECFEFD0E4DEBFCDBF11E0A0E032
:1000B000B1E0ECEEF2E000E00BBF02C007900D9261
:1000C000AE30B107D9F721E0AEE0B1E001C01D923A
:1000D000A131B207E1F70E9458010C9474010C940D
:1000E0000000CF93C82F8A3019F48DE00E94710070
:1000F0008091C00085FFFCCFC093C60080E090E0F7
:10010000CF910895E0910F01F0911001EA30F105CF
:1001100008F0ACC0EA5BFF4F0C946B0181E090E00B
:100120009093100180930F01A1C080910E01813046
:1001300039F482E090E09093100180930F0196C013
:1001400081E090E09093100180930F018FC0809127
:100150000E01813039F482E090E090931001809399
:100160000F0184C086E090E09093100180930F010E
:100170007DC080910E01811107C086E090E09093D0
:10018000100180930F0172C083E090E09093100102
:1001900080930F016BC080910E01813039F483E0B0
:1001A00090E09093100180930F0160C087E090E091
:1001B0009093100180930F0159C080910E0181111D
:1001C00007C087E090E09093100180930F014EC02C
:1001D00084E090E09093100180930F0147C08091DC
:1001E0000E01813039F484E090E090931001809307
:1001F0000F013CC088E090E09093100180930F01C4
:1002000035C080910E01811107C088E090E0909385
:10021000100180930F012AC085E090E090931001B7
:1002200080930F0123C080910E01813039F485E065
:1002300090E09093100180930F0118C089E090E046
:100240009093100180930F0111C080910E018111D4
:1002500007C089E090E09093100180930F0106C0E1
:1002600081E090E09093100180930F0180910F0145
:10027000909110018330910591F030F48130910517
:1002800049F0029749F008958430910559F0059797
:1002900061F0089515B8089581E285B9089582E165
:1002A00085B908958CE085B908958FE385B90895DF
:1002B00011B88FEF82B984B915B815B81092100132
:1002C00010920F0190B181E08927817080930E0117
:1002D0000E948200F7CFEE0FFF1F0024001C0BBE10
:0C02E0000790F691E02D0994F894FFCFF0
:0E02EC00000000020000000071000000000091
:00000001FF
