:100000000C948B000C94AA000C94AA000C94AA00E7
:100010000C94AA000C94AA000C94AA000C94AA00B8
:100020000C94AA000C94AA000C94AA000C94AA00A8
:100030000C94AA000C94BB030C94AA000C94AA0084
:100040000C94AA000C94AA000C94AA000C94AA0088
:100050000C94AA000C94AA000C94AA000C94AA0078
:100060000C94AA000C94AA000C94AA000C94AA0068
:100070000C94AA000C94AA000C94AA000C94AA0058
:100080000C94AA000C94AA000C94AA0045048804BD
:100090008804880488048804880488048804880400
:1000A00088048804880488048804880488048804F0
:1000B00088048804880488048804880488048804E0
:1000C00088048804880488048804880488048804D0
:1000D00088048404880488048804880488048804C4
:1000E0007C04880488048804880488048004480404
:1000F0004C045004540458045C0460046404680410
:1001000088048804880488048804880488046C04AB
:1001100070047404780411241FBECFEFD0E4DEBF56
:10012000CDBF11E0A0E0B1E0E2E5FBE000E00BBFF5
:1001300002C007900D92A034B107D9F721E0A0E4E6
:10014000B1E001C01D92A037B207E1F70E948E0412
:100150000C94A7050C94000040E050E00CC0000097
:100160002F5F3F4F02C020E030E0273063E03607CA
:10017000B4F34F5F5F4F48175907ACF3089595B13B
:100180009F7B95B98BB985B1806885B9000085B131
:100190008F7785B982E090E00E94AC00089581E0FD
:1001A0000E94BF000895813120F481580E94BF0051
:1001B000089581550E94BF00089584E690E00E9452
:1001C000AC0088E30E94BF0086E00E94BF008FE081
:1001D0000E94BF0081E00E94BF008AE090E00E9480
:1001E000AC00089595B1906495B98BB985B18068DC
:1001F00085B9000085B18F7785B981E090E00E94D4
:10020000AC000895EF92FF920F931F93CF93DF936B
:10021000182FEB010E94CF000EC001E0010F812FCB
:100220000E94D3007E018FEFE81AF80A88810E94AD
:10023000F200102FE70188818111EFCFDF91CF917C
:100240001F910F91FF90EF900895CF93C82F8A30A0
:1002500019F48DE00E9425018091C00085FFFCCF3C
:10026000C093C60080E090E0CF9108958130910561
:1002700061F082309105A1F00097C9F42091460108
:100280002130D1F481E090E017C020914601213067
:1002900089F020914001213079F482E090E00CC097
:1002A00020914601213041F481E090E005C080E0DA
:1002B00090E002C082E090E08130910541F0823010
:1002C000910549F0009749F410924101089521E009
:1002D000209341010895109241010895009721F063
:1002E0008130910541F00EC020914601243061F427
:1002F00081E090E009C020914601223029F480E09D
:1003000090E002C080E090E0009721F081309105FC
:1003100029F0089521E020934201089522E02093DE
:1003200042010895CF93DF93EC018130910589F06C
:100330001CF4892B39F03FC08230910531F10397CD
:1003400059F139C0809141018130D1F5C1E0D0E04F
:1003500037C080914101882389F180914401863022
:1003600021F480914201813041F0809143018A3033
:1003700039F580914201823019F50E94CF0081E069
:1003800080934001C3E0D0E01BC0809141018130E7
:10039000B9F4C1E0D0E014C080914101813039F45A
:1003A0000E94CF0010924001C1E0D0E009C081E07E
:1003B0008093400105C0C0E0D0E002C0C2E0D0E0C0
:1003C000C130D105A9F11CF4209751F0CAC0C23048
:1003D000D10509F47EC0C330D10509F4ABC0C1C05A
:1003E000109245011DC08F5F0E94D300E09145012E
:1003F000F0E0E05DFE4F80810E94F20080914501B7
:100400008F5E0E94D300E0914501F0E0E05EFE4F78
:1004100080810E94F200809145018F5F80934501A9
:10042000809145018031F8F281E00E94D30099C0AB
:1004300080914401803108F047C081E080934501FC
:1004400028C00E94D30080914401E0914501F0E072
:10045000E80FF11DEF70FF27E05DFE4F80810E94E5
:10046000F20080914501805F0E94D300809143019A
:10047000E0914501F0E0E80FF11DEF70FF27E05E2D
:10048000FE4F80810E94F200809145018F5F809332
:100490004501809145018131A0F280914201813076
:1004A00019F40E94D30005C0823019F481E10E9442
:1004B000D300809144018F5F809344018091430178
:1004C0008F5F809343014DC010924401109243010D
:1004D00048C081E08093450128C00E94D3008091EC
:1004E0004401E0914501F0E0E80FF11DEF70FF27B6
:1004F000E05DFE4F80810E94F20080914501805FA7
:100500000E94D30080914301E0914501F0E0E80FA3
:10051000F11DEF70FF27E05EFE4F80810E94F20028
:10052000809145018F5F8093450180914501813124
:10053000A0F217C081E0809345010FC00E94D30054
:10054000E0914501F0E0E95EFE4F80810E94F200FB
:10055000809145018F5F80934501809145018930ED
:1005600068F3CE01DF91CF910895442349F021E053
:1005700030E002C0220F331F6A95E2F7822B089504
:1005800021E030E002C0220F331F6A95E2F7209588
:100590008223089521E030E002C0220F331F6A95C4
:1005A000E2F78223089540E064E08FEF0E94B502F5
:1005B00088B9000086B160E080950E94CA0281116E
:1005C00080C086B161E080950E94CA0281117BC023
:1005D00086B162E080950E94CA02811176C086B120
:1005E00063E080950E94CA02811171C040E065E01D
:1005F0008FEF0E94B50288B9000086B160E0809557
:100600000E94CA02811165C086B161E080950E9496
:10061000CA02811160C086B162E080950E94CA0260
:1006200081115BC086B163E080950E94CA0281118E
:1006300056C040E066E08FEF0E94B50288B9000026
:1006400086B160E080950E94CA0281114AC086B1DD
:1006500061E080950E94CA02811145C086B162E0C6
:1006600080950E94CA02811140C086B163E08095E6
:100670000E94CA0281113BC040E067E08FEF0E94F8
:10068000B50288B9000086B160E080950E94CA0278
:1006900081112FC086B161E080950E94CA0281114C
:1006A0002AC086B162E080950E94CA02811125C0ED
:1006B00086B163E080950E94CA028823F9F084E441
:1006C000089581E3089584E3089587E308958AE215
:1006D000089582E3089585E3089588E3089580E30B
:1006E000089583E3089586E3089589E3089583E2F6
:1006F000089581E4089582E4089583E40895609361
:1007000000017093010180930201909303016093B3
:100710004A0170934B0180934C0190934D010895D1
:100720008BE0809381008DE790E090938900809327
:10073000880082E080936F00109285001092840000
:100740008091000190910101A0910201B0910301FB
:1007500080934A0190934B01A0934C01B0934D01BB
:100760008FB780688FBF089510928100089581E04F
:1007700080934E0108951F920F920FB60F9211248D
:100780000BB60F922F933F934F935F936F937F938B
:100790008F939F93AF93BF93EF93FF9380914A0101
:1007A00090914B01A0914C01B0914D010197A1098D
:1007B000B10980934A0190934B01A0934C01B093EF
:1007C0004D01892B8A2B8B2B91F40E94B7038091CA
:1007D000000190910101A0910201B0910301809369
:1007E0004A0190934B01A0934C01B0934D01FF91AE
:1007F000EF91BF91AF919F918F917F916F915F9199
:100800004F913F912F910F900BBE0F900FBE0F9005
:100810001F9018950F931F93CF93DF93B62FA72F99
:10082000F82FE92F022F132FD42FC52F04C0062F26
:10083000172FD82FC92F6B2F7A2F8F2F9E2F202F56
:10084000312F4D2F5C2F0E947C05B02FA12FFD2F43
:10085000EC2F611571058105910549F7602F712F06
:100860008D2F9C2FDF91CF911F910F9108950E94A2
:10087000D3028093480190E08534910508F048C088
:10088000FC01EA5BFF4F0C949E051092470143C0A8
:1008900081E3809347013FC082E3809347013BC0DF
:1008A00083E38093470137C084E38093470133C0DB
:1008B00085E3809347012FC086E3809347012BC0D7
:1008C00087E38093470127C088E38093470123C0D3
:1008D00089E3809347011FC081E4809347011BC0D7
:1008E00082E48093470117C083E48093470113C0DB
:1008F00084E4809347010FC08AE2809347010BC0D4
:1009000080E38093470107C083E28093470103C0DF
:100910008BE18093470180E090E00895CF93DF93CF
:1009200000D000D000D0CDB7DEB711B88FEF82B9BC
:1009300084B915B890EF97B99FE098B98AB91BB8F8
:100940000E94DD0086E0E2E1F1E0DE011196019017
:100950000D928A95E1F7E5E6F1E010828AE090E0F9
:10096000A0E0B0E081839283A383B48385839683E0
:10097000A783B08726E331E032872187EAE5F1E0FB
:10098000108281839283A383B48385839683A78314
:10099000B0878EE691E092878187EFE4F1E01082E4
:1009A00088EC90E0A0E0B0E081839283A383B483DD
:1009B00085839683A783B08782E991E092878187B8
:1009C00081E0809349010F2EFAE0CF2ED12CE12C4B
:1009D000F12CF02D1AC0E12FF0E0EE0FFF1F21E007
:1009E00030E02C0F3D1FE20FF31F0190F081E02D4E
:1009F0002181328143815481C701B6010E940A04DA
:100A00006B017C011F5F1093490110914901133064
:100A100010F3C701B6010E947F030E94900380B1CA
:100A200080958770809346011092490159C0F0E08B
:100A3000EE0FFF1F81E090E08C0F9D1FE80FF91F64
:100A400000811181D80115964D915D916D917C9138
:100A5000189711968D919D910D90BC91A02D4817DE
:100A600059076A077B07F1F4D8011996ED91FC91BB
:100A70001A978C91082E000C990B0995F801808328
:100A8000E0914901F0E0EE0FFF1F21E030E02C0F74
:100A90003D1FE20FF31F0190F081E02D15821682B9
:100AA0001782108680914901E82FF0E0EE0FFF1FBA
:100AB000A1E0B0E0AC0FBD1FEA0FFB1F0190F08179
:100AC000E02D45815681678170854C0D5D1D6E1D41
:100AD0007F1D45835683678370878F5F80934901AD
:100AE000E0914901E33008F4A2CF80914E018823C0
:100AF000E1F310924E0193CFA1E21A2EAA1BBB1B69
:100B0000FD010DC0AA1FBB1FEE1FFF1FA217B307D9
:100B1000E407F50720F0A21BB30BE40BF50B661FEF
:100B2000771F881F991F1A9469F7609570958095B3
:100B300090959B01AC01BD01CF010895EE0FFF1F01
:100B40000024001C0BBE0790F691E02D0994F89448
:020B5000FFCFD5
:100B5200010000000000000200000000250100006A
:100B6200000065015A014F01594F55204C4F534522
:100B72002020202020202020202A20202020202069
:100B820020202020202A2020202020202020202059
:00000001FF
