:100000000C948B000C94AA000C94AA000C94AA00E7
:100010000C94AA000C94AA000C94AA000C94AA00B8
:100020000C94AA000C94AA000C94AA000C94AA00A8
:100030000C94AA000C9485020C94AA000C94AA00BB
:100040000C94AA000C94AA000C94AA000C94AA0088
:100050000C94AA000C94AA000C94AA000C94AA0078
:100060000C94AA000C94AA000C94AA000C94AA0068
:100070000C94AA000C94AA000C94AA000C94AA0058
:100080000C94AA000C94AA000C94AA000F0352032B
:1000900052035203520352035203520352035203B8
:1000A00052035203520352035203520352035203A8
:1000B0005203520352035203520352035203520398
:1000C0005203520352035203520352035203520388
:1000D00052034E035203520352035203520352037C
:1000E0004703520352035203520352034B031303B9
:1000F00017031B031F03230327032B032F033303C0
:100100005203520352035203520352035203370362
:100110003B033F03430311241FBECFEFD0E4DEBFF8
:10012000CDBF11E0A0E0B1E0ECE8F8E000E00BBFEB
:1001300002C007900D92AA33B107D9F721E0AAE3D4
:10014000B1E001C01D92AF34B207E1F70E9458033D
:100150000C9444040C94000040E050E00CC00000FB
:100160002F5F3F4F02C020E030E0273063E03607CA
:10017000B4F34F5F5F4F48175907ACF3089595B13B
:100180009F7B95B98BB985B1806885B9000085B131
:100190008F7785B982E090E00E94AC00089581E0FD
:1001A0000E94BF000895813120F481580E94BF0051
:1001B000089581550E94BF00089584E690E00E9452
:1001C000AC0088E30E94BF0086E00E94BF008FE081
:1001D0000E94BF0081E00E94BF008AE090E00E9480
:1001E000AC00089595B1906495B98BB985B18068DC
:1001F00085B9000085B18F7785B981E090E00E94D4
:10020000AC000895EF92FF920F931F93CF93DF936B
:10021000182FEB010E94CF000EC001E0010F812FCB
:100220000E94D3007E018FEFE81AF80A88810E94AD
:10023000F200102FE70188818111EFCFDF91CF917C
:100240001F910F91FF90EF900895CF93C82F8A30A0
:1002500019F48DE00E9425018091C00085FFFCCF3C
:10026000C093C60080E090E0CF910895CF93DF93D4
:10027000CDB7DEB7A8970FB6F894DEBF0FBECDBFDF
:1002800088E2E2E1F1E0DE01119601900D928A959B
:10029000E1F780913C01883128F581E080933D01B0
:1002A00017C00E94D30080913C01E0913D01F0E035
:1002B000E80FF11D81E090E08C0F9D1FE80FF91F02
:1002C00080810E94F20080913D018F5F80933D010B
:1002D00080913D01813128F380913C018F5F8093B3
:1002E0003C0102C010923C0180E090E0A8960FB65D
:1002F000F894DEBF0FBECDBFDF91CF9108954423A8
:1003000049F021E030E002C0220F331F6A95E2F786
:10031000822B089521E030E002C0220F331F6A953E
:10032000E2F720958223089521E030E002C0220FF9
:10033000331F6A95E2F78223089540E064E08FEF6F
:100340000E947F0188B9000086B160E080950E941C
:100350009401811180C086B161E080950E94940172
:1003600081117BC086B162E080950E949401811169
:1003700076C086B163E080950E949401811171C0BE
:1003800040E065E08FEF0E947F0188B9000086B1F0
:1003900060E080950E949401811165C086B161E0A2
:1003A00080950E949401811160C086B162E08095C1
:1003B0000E94940181115BC086B163E080950E9428
:1003C0009401811156C040E066E08FEF0E947F01EA
:1003D00088B9000086B160E080950E949401811187
:1003E0004AC086B161E080950E949401811145C0A8
:1003F00086B162E080950E949401811140C086B16F
:1004000063E080950E94940181113BC040E067E069
:100410008FEF0E947F0188B9000086B160E080956F
:100420000E94940181112FC086B161E080950E94E5
:10043000940181112AC086B162E080950E949401E6
:10044000811125C086B163E080950E9494018823C4
:10045000F9F084E4089581E3089584E3089587E33F
:1004600008958AE2089582E3089585E3089588E374
:10047000089580E3089583E3089586E3089589E36A
:10048000089583E2089581E4089582E4089583E461
:10049000089560930001709301018093020190938D
:1004A000030160933E0170933F018093400190935C
:1004B000410108958BE0809381008DE790E0909357
:1004C00089008093880082E080936F0010928500FD
:1004D000109284008091000190910101A09102018D
:1004E000B091030180933E0190933F01A09340019E
:1004F000B09341018FB780688FBF0895109281003B
:10050000089581E08093420108951F920F920FB6E3
:100510000F9211240BB60F922F933F934F935F933B
:100520006F937F938F939F93AF93BF93EF93FF93BB
:1005300080913E0190913F01A0914001B091410115
:100540000197A109B10980933E0190933F01A093C7
:100550004001B0934101892B8A2B8B2B91F40E948F
:1005600081028091000190910101A0910201B0915E
:10057000030180933E0190933F01A0934001B0930B
:100580004101FF91EF91BF91AF919F918F917F9129
:100590006F915F914F913F912F910F900BBE0F90F4
:1005A0000FBE0F901F9018950F931F93CF93DF935B
:1005B000B62FA72FF82FE92F022F132FD42FC52FD7
:1005C00004C0062F172FD82FC92F6B2F7A2F8F2FEC
:1005D0009E2F202F312F4D2F5C2F0E941904B02FFA
:1005E000A12FFD2FEC2F611571058105910549F7AC
:1005F000602F712F8D2F9C2FDF91CF911F910F9125
:1006000008950E949D0180933B0190E085349105FF
:1006100008F048C0FC01EA5BFF4F0C943B048FE1FB
:1006200080933A0142C081E080933A013EC082E06B
:1006300080933A013AC083E080933A0136C084E067
:1006400080933A0132C085E080933A012EC086E063
:1006500080933A012AC087E080933A0126C088E05F
:1006600080933A0122C089E080933A011EC08AE05B
:1006700080933A011AC08BE080933A0116C08CE057
:1006800080933A0112C08DE080933A010EC08EE053
:1006900080933A010AC010923A0107C08FE080931C
:1006A0003A0103C08BE180933A0180E090E0089525
:1006B000CF93DF9300D0CDB7DEB711B88FEF82B9FB
:1006C00084B915B890EF97B99FE098B98AB91BB86B
:1006D0000E94DD00E3E4F1E0FA83E98310828CE21A
:1006E00091E0A0E0B0E081839283A383B48385830B
:1006F0009683A783B08786E391E09287818781E024
:1007000080934E010F2EFCE2CF2EDD24D394E12CFA
:10071000F12CF02D1AC0E12FF0E0EE0FFF1F21E0C9
:1007200030E02C0F3D1FE20FF31F0190F081E02D10
:100730002181328143815481C701B6010E94D402D4
:100740006B017C011F5F10934E0110914E0111232C
:1007500011F36CE271E080E090E00E9449020E9497
:100760005A0210924E0159C0F0E0EE0FFF1F81E0D7
:1007700090E08C0F9D1FE80FF91F00811181D801B7
:1007800015964D915D916D917C91189711968D9173
:100790009D910D90BC91A02D481759076A077B07C2
:1007A000F1F4D8011996ED91FC911A978C91082ECD
:1007B000000C990B0995F8018083E0914E01F0E05F
:1007C000EE0FFF1F21E030E02C0F3D1FE20FF31F63
:1007D0000190F081E02D158216821782108680919B
:1007E0004E01E82FF0E0EE0FFF1FA1E0B0E0AC0FEC
:1007F000BD1FEA0FFB1F0190F081E02D458156815E
:10080000678170854C0D5D1D6E1D7F1D4583568370
:10081000678370878F5F80934E01E0914E01EE23D6
:1008200009F4A2CF809142018823E1F310924201A2
:1008300098CFA1E21A2EAA1BBB1BFD010DC0AA1F57
:10084000BB1FEE1FFF1FA217B307E407F50720F039
:10085000A21BB30BE40BF50B661F771F881F991FB4
:100860001A9469F760957095809590959B01AC01FD
:10087000BD01CF010895EE0FFF1F0024001C0BBE29
:0C0880000790F691E02D0994F894FFCF4A
:10088C000100000000000002000000002501000033
:10089C000000202020435331323042206973204C19
:1008AC006567656E642E2E2E207761697420666FE5
:0A08BC007220697420444152592152
:00000001FF
