:100000000C9446000C9465000C9465000C946500FB
:100010000C9465000C9465000C9465000C946500CC
:100020000C9465000C9465000C9465000C946500BC
:100030000C9465000C94CA010C9465000C94650046
:100040000C9465000C9465000C9465000C9465009C
:100050000C9465000C9465000C9465000C9465008C
:100060000C9465000C9465000C9465000C9465007C
:100070000C9465000C9465000C9465000C9465006C
:100080000C9465000C9465000C94650011241FBE4F
:10009000CFEFD0E4DEBFCDBF11E0A0E0B1E0E4E0FF
:1000A000F6E000E00BBF02C007900D92AA32B10744
:1000B000D9F721E0AAE2B1E001C01D92A635B2074E
:1000C000E1F70E9446020C9400030C94000040E00B
:1000D00050E00CC000002F5F3F4F02C020E030E036
:1000E000273063E03607B4F34F5F5F4F4817590777
:1000F000ACF308959BB19F7B9BB988B98BB18068A5
:100100008BB900008BB18F778BB982E090E00E94B1
:100110006700089581E00E947A000895813120F4FB
:1001200081580E947A00089581550E947A000895AE
:1001300084E690E00E94670088E30E947A0086E0EF
:100140000E947A008FE00E947A0081E00E947A008B
:100150008AE090E00E94670008959BB190649BB98B
:1001600088B98BB180688BB900008BB18F778BB960
:1001700081E090E00E9467000895EF92FF920F9354
:100180001F93CF93DF93182FEB010E948A000EC0BC
:1001900001E0010F812F0E948E007E018FEFE81A8F
:1001A000F80A88810E94AD00102FE7018881811133
:1001B000EFCFDF91CF911F910F91FF90EF900895B6
:1001C0008130910531F08230910531F0009779F45A
:1001D0000CC082E090E00BC0209145012A3238F03B
:1001E0001092450181E090E002C081E090E0813012
:1001F000910521F08230910559F008952091000178
:1002000020935501209145012F5F209345010895CA
:10021000E6E4F1E02181208322812183238122836E
:100220002481238325812483268125832781268396
:100230002085278321852087228521872385228782
:100240002485238725852487268525872785268756
:1002500020914501263218F01092550107C0E22F77
:10026000F0E0E050FF4F3081309355012F5F209335
:1002700045010895EF92FF921F93CF93DF9302976A
:1002800020F4EE24E394F12C02C0E12CF12C81E067
:10029000E816F104D9F01DC0C12FD0E02197FE016E
:1002A000EA5BFE4F8081882349F0812F0E948E00F7
:1002B000CA5BDE4F88810E94AD0006C0812F0E947C
:1002C0008E0080E20E94AD001F5F01C011E011317D
:1002D00018F3C701DF91CF911F91FF90EF90089520
:1002E000442349F021E030E002C0220F331F6A9519
:1002F000E2F7822B089521E030E002C0220F331F85
:100300006A95E2F720958223089521E030E002C04B
:10031000220F331F6A95E2F7822308956093260126
:1003200070932701809328019093290160932A01FB
:1003300070932B0180932C0190932D0108958BE0F5
:10034000809381008DE790E09093890080938800EE
:1003500082E080936F00109285001092840080915B
:10036000260190912701A0912801B0912901809345
:100370002A0190932B01A0932C01B0932D018FB7EC
:1003800080688FBF089510928100089581E0809366
:100390002E0108951F920F920FB60F9211240BB6E3
:1003A0000F922F933F934F935F936F937F938F930E
:1003B0009F93AF93BF93EF93FF9380912A01909106
:1003C0002B01A0912C01B0912D010197A109B10938
:1003D00080932A0190932B01A0932C01B0932D01BF
:1003E000892B8A2B8B2B91F40E94C60180912601C8
:1003F00090912701A0912801B091290180932A01B1
:1004000090932B01A0932C01B0932D01FF91EF91BC
:10041000BF91AF919F918F917F916F915F914F911C
:100420003F912F910F900BBE0F900FBE0F901F901A
:1004300018950F931F93CF93DF93B62FA72FF82F05
:10044000E92F022F132FD42FC52F04C0062F172FEB
:10045000D82FC92F6B2F7A2F8F2F9E2F202F312F20
:100460004D2F5C2F0E94DE02B02FA12FFD2FEC2F0D
:10047000611571058105910549F7602F712F8D2F49
:100480009C2FDF91CF911F910F910895CF93DF9310
:1004900000D000D0CDB7DEB728EC30E040E050E02F
:1004A00068EC70E080E090E00E9419026B017C0132
:1004B00068EC70E080E090E0A70196010E94DE0207
:1004C000AAE3B1E0BA83A983EFE2F1E0FC83EB8316
:1004D0008FEF84B915B88AB91BB81C9211962D9369
:1004E0003D934D935C93149715962D933D934D93A7
:1004F0005C93189780EE90E01A969C938E931997D0
:100500001082218332834383548325833683478338
:1005100050878AE391E0928781870E9498000E9429
:100520008A00C701B6010E948E010E949F01F12C32
:100530003BC0EF2DF0E0EE0FFF1F81E090E08C0F4D
:100540009D1FE80FF91F00811181D80115964D916B
:100550005D916D917C91189711968D919D910D9063
:10056000BC91A02D481759076A077B0781F4D80171
:100570001996ED91FC911A978C91082E000C990B0D
:100580000995F80180831582168217821086F8017A
:1005900085819681A781B0850196A11DB11D8583B6
:1005A0009683A783B087F394F1E0FF1510F680914E
:1005B0002E018823E1F310922E01B9CFA1E21A2E69
:1005C000AA1BBB1BFD010DC0AA1FBB1FEE1FFF1FF7
:1005D000A217B307E407F50720F0A21BB30BE40B47
:1005E000F50B661F771F881F991F1A9469F760958E
:1005F0007095809590959B01AC01BD01CF01089548
:04060000F894FFCF9C
:10060400435331323042206973204C6567656E6410
:100614002C207761697420666F722069742E2E2EE7
:0A06240020646172792101000000DA
:00000001FF
