:100000000C9446000C9465000C9465000C946500FB
:100010000C9465000C9465000C9465000C946500CC
:100020000C9465000C9465000C9465000C946500BC
:100030000C9465000C941C010C9465000C946500F4
:100040000C9465000C9465000C9465000C9465009C
:100050000C9465000C9465000C9465000C9465008C
:100060000C9465000C9465000C9465000C9465007C
:100070000C9465000C9465000C9465000C9465006C
:100080000C9465000C9465000C94650011241FBE4F
:10009000CFEFD0E4DEBFCDBF11E0A0E0B1E0E4ECF3
:1000A000F5E000E00BBF02C007900D92A231B1074E
:1000B000D9F721E0A2E1B1E001C01D92AD31B20754
:1000C000E1F70E94AB020C94E0020C94000040E0C7
:1000D00050E00CC000002F5F3F4F02C020E030E036
:1000E000273063E03607B4F34F5F5F4F4817590777
:1000F000ACF308959BB19F7B9BB988B98BB18068A5
:100100008BB900008BB18F778BB982E090E00E94B1
:100110006700089581E00E947A000895813120F4FB
:1001200081580E947A00089581550E947A000895AE
:1001300084E690E00E94670088E30E947A0086E0EF
:100140000E947A008FE00E947A0081E00E947A008B
:100150008AE090E00E94670008959BB190649BB98B
:1001600088B98BB180688BB900008BB18F778BB960
:1001700081E090E00E9467000895EF92FF920F9354
:100180001F93CF93DF93182FEB010E948A000EC0BC
:1001900001E0010F812F0E948E007E018FEFE81A8F
:1001A000F80A88810E94AD00102FE7018881811133
:1001B000EFCFDF91CF911F910F91FF90EF900895B6
:1001C000CF93C82F8A3019F48DE00E94E00080910F
:1001D000C00085FFFCCFC093C60080E090E0CF91C7
:1001E00008958BE0809381008DE790E090938900E3
:1001F0008093880082E080936F00109285001092B7
:1002000084008091000190910101A0910201B091C0
:1002100003018093120190931301A0931401B093F2
:1002200015018FB780688FBF0895109281000895DF
:1002300081E08093160108951F920F920FB60F92DE
:1002400011240BB60F922F933F934F935F936F93AD
:100250007F938F939F93AF93BF93EF93FF9380917F
:10026000120190911301A0911401B0911501019711
:10027000A109B1098093120190931301A093140175
:10028000B0931501892B8A2B8B2B91F40E941801B6
:100290008091000190910101A0910201B0910301B0
:1002A0008093120190931301A0931401B093150150
:1002B000FF91EF91BF91AF919F918F917F916F913E
:1002C0005F914F913F912F910F900BBE0F900FBEFA
:1002D0000F901F9018956093000170930101809317
:1002E00002019093030160931201709313018093B4
:1002F00014019093150108958091190190911A01AC
:100300008230910509F44BC028F4009769F00197F9
:1003100091F0BFC08430910509F477C008F45AC049
:10032000059709F4A4C0B5C081E090E090931A014C
:1003300080931901B2C080911801813079F482E074
:1003400090E090931A0180931901809117018930F0
:1003500008F0A3C08F5F809317019FC0823079F4AB
:1003600083E090E090931A01809319018091170126
:10037000882309F492C08150809317018EC0833086
:1003800039F485E090E090931A018093190185C0BB
:1003900081E090E090931A01809319017EC08091D2
:1003A0001801811107C084E090E090931A018093B6
:1003B000190173C0833039F485E090E090931A01FD
:1003C000809319016AC082E090E090931A018093B3
:1003D000190163C080911801811107C084E090E089
:1003E00090931A018093190158C0833039F485E045
:1003F00090E090931A01809319014FC083E090E040
:1004000090931A018093190148C08091180181309E
:1004100071F482E090E090931A0180931901809129
:1004200017018930D0F58F5F8093170136C0823075
:1004300071F483E090E090931A0180931901809108
:100440001701882351F181508093170126C0833012
:1004500039F485E090E090931A01809319011DC052
:1004600084E090E090931A018093190116C0809166
:100470001801833039F485E090E090931A0180935D
:1004800019010BC084E090E090931A018093190148
:1004900004C010921A0110921901809119019091D3
:1004A0001A0182309105C1F028F4009751F00197AC
:1004B00059F04CC084309105D9F120F10597F1F144
:1004C00045C01092170108951092170110921B0158
:1004D00081E080931C01089580911701893048F4D0
:1004E00090911B019A3029F48F5F8093170110922D
:1004F0001B0180911B018F5F80931B0182E0809321
:100500001C01089580911701882349F090911B01E7
:100510009A3029F481508093170110921B01809129
:100520001B018F5F80931B0183E080931C01089562
:1005300010921B0184E080931C0108951092170112
:1005400010921B0185E080931C0108951092170101
:1005500010921B01089511B88FEF82B984B915B8B4
:1005600087B918B88AB91BB80E94980064E670E091
:1005700080E090E00E946B010E94F10087E0809390
:10058000170181E090E090931A018093190180B1E6
:1005900080958370809318010E947C0180911601E0
:1005A0008823E1F31092160180911C0185B981E046
:1005B0000E948E0080911701805D0E94AD00E7CF00
:0405C000F894FFCFDD
:1005C400010000000000000200000000E000000044
:0205D400000025
:00000001FF
