:100000000C9446000C945D000C945D000C945D0013
:100010000C945D000C945D000C945D000C945D00EC
:100020000C945D000C945D000C945D000C945D00DC
:100030000C945D000C945D000C945D000C945D00CC
:100040000C945D000C945D000C945D000C945D00BC
:100050000C945D000C945D000C945D000C945D00AC
:100060000C945D000C945D000C945D000C945D009C
:100070000C945D000C945D000C945D000C945D008C
:100080000C945D000C945D000C945D0011241FBE67
:10009000CFEFD0E4DEBFCDBF11E0A0E0B1E0EEE4F1
:1000A000F1E000E00BBF02C007900D92AE30B10747
:1000B000D9F70E9470000C94A5000C940000CF9317
:1000C000C82F8A3019F48DE00E945F008091C00033
:1000D00085FFFCCFC093C60080E090E0CF910895EB
:1000E00011B88FEF82B987B918B880B180958F7039
:1000F00019F480E488B9F9CF9FEF980F923018F483
:1001000080E688B9F2CF9DEF980F923018F480E323
:1001100088B9EBCF9BEF980F923018F488E388B939
:10012000E4CF99EF980F933018F48CE388B9DDCFC2
:1001300096EF980F933018F48EE388B9D6CF8D5090
:0E014000833098F68FE388B9D0CFF894FFCFC4
:0E014E0000000002000000005F000000000042
:00000001FF
